S01000004E464342616467652E737265636A
S113000078090020A9040000A5040000A50400004C
S113001000000000000000000000000000000000DC
S1130020000000000000000000000000A504000023
S11300300000000000000000A5040000A50400006A
S1130040A5040000A5040000A5040000A504000008
S1130050A1150000A5040000A5040000952C0000D3
S1130060A5040000A5040000A5040000A5040000E8
S1130070A5040000A51B0000A5040000A5040000C1
S1130080A5040000A5040000A504000010B5064C5A
S11300902378002B07D1054B002B02D0044800E045
S11300A000BF0123237010BD6C000020000000007D
S11300B0B43D0000084B10B5002B03D00749084895
S11300C000E000BF07480368002B00D110BD064BB9
S11300D0002BFBD09847F9E70000000070000020D7
S11300E0B43D0000B43D0000000000007047000073
S11300F070B5C025ED058026F601AE610120044CE3
S1130100A0476E610120A047AE610A20A04770BDE0
S11301107D09000010B50120074CA047074B984704
S11301200120074B9847074B98470320A047064BED
S113013098470A20A04710BD7D090000290400004B
S11301403103000035040000F1000000F8B5CE468C
S1130150474680B58146424B98470020414B98471B
S11301604B461B78552B4DD04B4659780231C9B2BA
S113017048463D4B98473D4B98473D4B98478046F2
S1130180374B98473B4F3C4E394D0220B84703202C
S1130190B04708240440A8474346C01AFA229200F4
S11301A0904233D8002CF0D0304B98472C4B9847D2
S11301B002202C4B9847314B9847314A10705528F0
S11301C02ED0FF282CD02D4B984701002C4841708D
S11301D002302C4B9847254B98474B469B78042B71
S11301E02BD0DAB2042A23D9DAB2072A23D3092A74
S11301F029D9552B1FD1224B18785538431E9841C5
S1130200C0B209E05520174B9847B4E7174B9847FD
S113021001221B4B1A7001200CBC90469946F8BD74
S113022017480023437002300221164B9847D2E747
S1130230013B012B07D90120EEE7114B1B78802BE2
S113024006D0902B0AD00E4B18780028D3D1E3E7C0
S11302500B4B5B780020002BCDD0DDE70020DBE7E3
S11302602904000031030000D1030000350400001C
S1130270850400007D0900008D0300005D0300007B
S113028088000020FD03000010B582B0040001A81E
S11302900123037000234370054B9847002804D1C1
S11302A0044B0233236002B010BD0120FBE7C046BB
S11302B04D01000088000020F0B583B014490F20E0
S11302C0144B9847144B9847144B984703246B4698
S11302D0DD1C5527124E2F702800B047114B1B7898
S11302E0552B08D00D4B9847013CE4B2002CF2D1B9
S11302F0012003B0F0BD01A80B4B9847002804D19E
S1130300084B5A7B094B1A70F3E70120F1E7C0460A
S1130310ED000000F9090000F100000015010000E3
S11303204D01000088000020890200000000002028
S113033010B584B06B46DC1DD87103A90448054B85
S11303409847012221000398034B984704B010BD3D
S113035044050020BD0B0000410A000010B582B026
S11303606B46DC1D0023237069460548054B9847FE
S1130370012221000098044B9847207802B010BD58
S113038044050020BD0B0000750A000030B585B09F
S11303906B46DD1DD8710F246C440023237002A921
S11303A00748084B9847012229000298064B9847B2
S11303B0012221000298054B9847207805B030BDF2
S11303C044050020BD0B0000410A0000750A00002E
S11303D030B583B005000C0001A90548054B9847CA
S11303E0A2B229000198044B984703B030BDC0461F
S11303F044050020BD0B0000410A000030B583B065
S113040005000C0001A90548054B9847A2B2290034
S11304100198044B984703B030BDC0464405002002
S1130420BD0B0000750A000080221204C023DB0506
S11304305A61704780221204C023DB059A61704719
S1130440024A1368013313607047C046EC01002070
S113045010B5074904238B60064BCB6001230B7452
S1130460054C2000054B98472000054B984710BDCC
S113047030050020410400005C050020690D0000E7
S11304802D0D0000014B18687047C046EC01002098
S113049010B5024B9847024B984710BDC5070000A2
S11304A08D3B0000FEE70000F8B52A4A2A4B9A4229
S11304B011D01A00294B9A420DD2294A03339B1AB0
S11304C09B0801339B000022234822498C58845006
S11304D004329A42FAD1234A234B9A420AD2D34392
S11304E021495B1803218B4304339B18002102C26A
S11304F09342FCD11D4AFF211D4B8B439360FD3970
S113050090235B001B4AD1501B4AD3780325AB438D
S113051002242343D370D3780C27BB4308263343E8
S1130520D370164B987B302290432022104398734B
S1130530997BB943314399739A7BAA4322439A73B3
S11305400F4A536880210B4353600E4B98470E4B60
S11305509847FEE7B43D0000000000206C00002036
S1130560040000206C0000207805002000ED00E06D
S113057000000000007000410050004100480041AC
S113058000400041ED3B00001D30000010B50F4A53
S11305900F4B5A8080221202C023DB055A600D4B98
S11305A00D4A9A620D4A9A624F215A5C0420824392
S11305B05A545A5C0338824302435A5418395A5CD9
S11305C00E3002405A54064B984710BD05400000B7
S11305D0000C00400044004100800240000002C0C2
S11305E0D5090000F0B5CE46474680B5C024E405E1
S11305F08023DB036361A360234B8022D2059146F1
S11306009A62224999625620195C0126B143012558
S11306102943C9B219541B38195C0F27BC46B94386
S113062002273943C9B2195480214902616018492B
S11306309962184999625021585C04229043585495
S1130640585CB0432843C0B258543820195C624601
S113065091433943C9B21954802189026161A1606F
S11306604A469A620C4A9A6251215A5CB2432A431E
S1130670D2B25A541A5C42390A4011310A431A540C
S11306800CBC90469946F0BD00440041400000C0B7
S113069000000240010002C0020000C0044A136AC4
S11306A008210B431362034A034B5A807047C04628
S11306B0000400400F400000000C004010B5044B43
S11306C0984704490448054B9847054B984710BD83
S11306D09D060000000C004244050020A90A000009
S11306E0E505000010B50248024B984710BDC0460E
S11306F010E000E069090000F0B5C64600B5C0246A
S1130700E40580225204A2601A4B8027FF059F62F1
S11307101949996262615820195C042290469143F8
S11307201954195C0126B14301252943C9B219544E
S11307301C38195C0B329143093A11431954802136
S11307408904A1609F620D4F9F62616159215C5CC5
S1130750424694435C545A5CB2432A43D2B25A543C
S11307601A5C4A390A4051310A431A5404BC90466F
S1130770F0BDC04600440041000100C0000200C0BA
S1130780064BDA6920210A43DA615A6920310A43A7
S11307905A61034A034B5A807047C0460004004024
S11307A006400000000C004010B5034B9847034B73
S11307B09847034B984710BD81070000851000003F
S11307C0F9060000F8B54A4B9847C022D205042523
S11307D055619560474B48499962C020000698626C
S11307E042269C5D01218C439C55082454619460ED
S11307F0424C9C62986201369C5D8C439C5510244B
S1130800546194603E4C9C62986201369C5D8C43BA
S11308109C552024546194603A4C9C629862013641
S11308209C5D8C439C55402454619460364E9E627A
S113083098624627DE5D8E43DE55802656619660BB
S1130840324E9E6298620137DE5D8E43DE5580260D
S11308507600566196602E4E9E6298620137DE5D88
S11308608E43DE558026B60056619660294E9E6200
S113087098620137DE5D8E43DE558026F6015661AF
S11308809660254E9E6298624E26985D88439855E0
S11308908020000490608026F6059E621F4E9E62B2
S11308A0906157201A5CAA431A541A5C8A430A437B
S11308B01A543A315A5C48380240113002435A54AF
S11308C0174B9847174B9847174B9847174A136A83
S11308D01C431462164A174B5A80174B9847020060
S11308E016491748174B9847174B9847F8BDC04609
S11308F0B11400000044004104000040080000401E
S113090010000040200000404000004080000040F3
S1130910000100400002004000400040800000C090
S11309208D050000BD060000E5060000000400403F
S113093012400000000C00407F1B00000018004221
S11309405C050020E90C0000A9070000EFF3108308
S1130950036072B6BFF35F8F7047BFF35F8F0368A6
S113096083F310887047000010B5024B1860024BE7
S1130970984710BDF0010020ED19000010B5044B9C
S11309801C68044B984701002000034B984710BD96
S1130990F0010020A5140000011A000070B50C4BF2
S11309A05C68A0420ED0012200210126FF2503E04D
S11309B02A0053185B080AD1A042F9D9002A06D0AC
S11309C03100F6E7024B1B68002B00D0984770BD3E
S11309D0F401002010B5054B012252425A60002256
S11309E01A600348034B984710BDC046F401002029
S11309F09D090000E914000010B50F4B5B68984294
S1130A0008D0002914D00C4B1B68002B09D00D20F2
S1130A1040420CE0084B1960002905D1074B984768
S1130A2005E0054B196058600121044B984710BD3F
S1130A300D204042FBE7C046F40100207915000078
S1130A4070B506000C00150000280DD00800431EE8
S1130A509841C0B234220549054B984733682A00AF
S1130A6021003000984770BD0020F3E7583C000097
S1130A70D913000070B506000C00150000280DD035
S1130A800800431E9841C0B23D220549054B9847D2
S1130A9073682A0021003000984770BD0020F3E7F6
S1130AA0583C0000D913000070B504000D00002864
S1130AB016D00800431E9841C0B2402209490A4B8F
S1130AC098476560201D2900084B9847002806DBDD
S1130AD0074BA382074B2361074BE360002070BDE3
S1130AE00020EAE76C3C0000D91300000517000061
S1130AF00080FFFF810B0000450B000030B587B07C
S1130B0004000D00002814D00800431E9841C0B210
S1130B10B3220949094B98472B6803936B680493E4
S1130B20AB6801930593201D03A9054B984707B0B3
S1130B3030BD0020ECE7C0466C3C0000D913000037
S1130B40FD17000070B584B004000E001500431EAC
S1130B509841C0B2A3220749074B98470023029348
S1130B600196039520000C3801A9044B984704B062
S1130B7070BDC0466C3C0000D9130000FD0A0000A3
S1130B8070B584B004000E001500431E9841C0B235
S1130B9087220749074B9847029600230193039540
S1130BA020000C3801A9044B984704B070BDC0461E
S1130BB06C3C0000D9130000FD0A000070B504006D
S1130BC00D0000280BD00800431E9841C0B2BD227E
S1130BD00449054B98470C342C60002070BD00205C
S1130BE0F5E7C0466C3C0000D9130000F8B5CE46CA
S1130BF0474680B5814603689C46002B05D08E6825
S1130C001C0000250127BF1A0DE0124B984718E07D
S1130C10FB18A06880464344B3420CD223682500E5
S1130C20002B0BD01C0063689342F1D8A068804667
S1130C3043449B1AF0E7A44507D02C002000064B40
S1130C4098470CBC90469946F8BD4846014B9847D6
S1130C50F7E7C0460514000031140000F0B5C6469D
S1130C6000B582B007004469036901339846036103
S1130C70037EDB0711D4037E9B070ED4002C10D017
S1130C80434662689B1AA26893420AD314239C4683
S1130C90844463460193124E14E03B7E02221343C4
S1130CA03B7602B004BC9046F0BD7D69E368200049
S1130CB09847002DF5D02C0043466A689B1AAA6811
S1130CC09342EED30198B047237C012BEDD14346E8
S1130CD06360424621000198024B9847E5E7C0460D
S1130CE079140000ED0B000070B505000C0000281D
S1130CF011D00800431E9841C0B23B220749084B5B
S1130D00984721002800074B984700232B61064B86
S1130D102B60002070BD0020EFE7C046883C000037
S1130D20D9130000551A00005D0C000010B5040032
S1130D30431E9841C0B253220749084B98472000EC
S1130D40074B9847002804D12000064B9847002001
S1130D5010BD11204042FBE7883C0000D91300007D
S1130D60751B0000691B000070B582B004000D0003
S1130D70002824D00800431E9841C0B27A221E499C
S1130D801E4B9847237E01221343237626001436F4
S1130D90290030001A4B9847002812D123696B6050
S1130DA0226929003000174B9847237E0122934380
S1130DB02376237E00209B070FD402B070BD002051
S1130DC0DCE7237E0122934323767E320A49002006
S1130DD00A4B984712204042EFE701A80A4B984774
S1130DE0237E0222934323762000084B984701A8D0
S1130DF0074B98470020E0E7883C0000D913000027
S1130E00E1130000ED0B00004D090000851B0000FC
S1130E105B090000F0B504000E4B5A78904217D0DD
S1130E20002300200B4F0F2626403D0008E0013030
S1130E3040B204280AD02033EA185278A24206D0DD
S1130E40D95D0029F3D19642F1D100E00538F0BD17
S1130E500020FCE7FC0100200020704770B504006E
S1130E600D000A4B98474201094B9B189A780023BE
S1130E70032A01D0180070BD4001054B181883697E
S1130E802900200098470300F4E7C046150E00002F
S1130E90FC010020F0B585B005000F001600514B91
S1130EA098470400002F62D14F4B4201991800204B
S1130EB0C870D35C002B0ED062014B4B9B180122EF
S1130EC09A706401484B1C19E178E36932002800E8
S1130ED0984705B0F0BD8B78032B0CD0424B6201D0
S1130EE00C329A1864011C1960780021E369984750
S1130EF00223A370EDE73C4A0B000C254D5761011A
S1130F000C3152185878DB6901219847002817D012
S1130F106201354B9B1805229A70033ADA70002D52
S1130F2009DB6401304B1C196078802318430121CC
S1130F302E4B9847CDE764012B4B1C196078F6E7DC
S1130F406401294B1C190423A370637800220192C5
S1130F500292002D08DB8032134301A8037201239F
S1130F604372234B9847B4E70F221340F5E7012F50
S1130F700AD0022F1DD0032F2CD042011A4B9B18EC
S1130F8006229A70DA709CE7174B420199180220E6
S1130F90C870D35C002B05D06201134B9B1805224B
S1130FA09A708EE702228A70002128000F4B98471E
S1130FB087E70D4B420199180420C870D35C002BBD
S1130FC005D06201084B9B1801229A7079E702232D
S1130FD08B707EE74201044B9B1800229A70053205
S1130FE0DA706EE7150E0000FC010020592800009D
S1130FF02D2A0000F0B5C64600B504001D4B9847E5
S1131000060045010C351C4B5D19290020001B4BC3
S11310109847C0B208280AD001212000184DA847DB
S1131020802020430121A84704BC9046F0BD002144
S11310302000134B98469847802727430021380007
S1131040C04772010C4B9B1801229A705B692900FE
S1131050200098470028E7D17601074B9E19052305
S1131060B37001212000064CA04701213800A0479D
S1131070DAE7C046150E0000FC010020BD2900007F
S11310805928000010B5104B984700281BDB0F4C63
S11310908022002120000E4B984723008034FF213A
S11310A00C4A59705A619A61DA612033A342F8D12B
S11310B009490020094CA04709490120A0470949D2
S11310C00220A047002010BD39220000FC010020AE
S11310D0473C0000590E0000F50F0000652C00008D
S11310E05D0E0000950E000010B5014B984710BD31
S11310F0412C000010B5014B984710BD152300008A
S113110010B5014B984710BD6523000010B5014B85
S1131110984710BD75230000F8B505000E001700B0
S11311200F4B9847002814DAFF200D4B9847041EF4
S113113012DB3A00310028000A4B9847002807DBED
S1131140094A640113195D7003231E40A65400204C
S1131150F8BD14204042FBE715204042F8E7C046A2
S1131160150E000085230000FC01002010B582B29A
S113117000210020014B984710BDC0461911000002
S113118070B50500064B9847041E07DB2800054B85
S113119098476401044B1C19FF23637070BDC0465B
S11311A0150E0000B1240000FC01002070B50400FD
S11311B00E4B9847051E15DB43010D4A9B5C5A42B2
S11311C05341013341010A4A521893702000094BDC
S11311D09847002800DB70BD6D01054B5D190023A5
S11311E0AB70F8E712204042F5E7C046150E000048
S11311F0FC0100207D250000F0B5D6464F4646464A
S1131200C0B586B00400077A3800404B9847050003
S1131210667A63689846002800DA71E004A83C4BBB
S113122098476A013B4B9B189A7817236B441A70B2
S11312301B78012B10D004A8374B984717236B4415
S11312401B78DBB2052B5ED0062B23D00120002BAC
S11312503CD11320404239E02E4B99466B019A460B
S11312604B46534403229A7004A82B4B98474B4691
S11312705246D35C002B10D0237A721E9641F6B2EC
S113128022680192424602927FB2002F17DB0F229E
S1131290134016E01020404218E06B011D4AD2189A
S11312A0D17C0902937C5B189BB2002B14D10423DC
S11312B0937000220126237A2168019102928022F0
S11312C0134301A803724672144B984706B01CBC22
S11312D090469946A246F0BD42469A4200D91A0069
S11312E06D010C494D19297B7F2905D8237A216882
S11312F0019102920026CAE79A42B6417642DAE7A1
S113130012204042E2E70220E0E7C046150E00004A
S11313104D090000FC0100205B0900002D2A00009B
S113132070B50400002905D0012921D00221134BF6
S1131330984770BD124B9847051E1CDB0221200004
S11313400E4B98470028F4D0002120000B4B9847FF
S11313500028EEDB6D010B4B5D190123AB700233EA
S1131360EB70EB6900220321200098470020E0E79E
S1131370024B9847DDE712204042DAE75928000083
S1131380150E0000FC01002070B50D0014000F4B79
S113139098470300221E08D0002B05DB012D0BD03B
S11313A0002D04D0022D0CD070BD094AF4E7400191
S11313B0084B18184261F7E74001064B1818826180
S11313C0F2E74001034B1818C261EDE7150E000067
S11313D0590E0000FC010020002800D100BE704717
S11313E00368002B0AD08B420AD01B68002B03D061
S11313F09942FAD1012000E0002070470020FCE768
S11314000120FAE770B504000D00064B984701234C
S11314105840C0B239220449044B984723682B60D2
S1131420256070BDE1130000A03C0000D91300004A
S113143003680B600160704770B505000E00046816
S11314400A4B984701235840C0B24F220849094B20
S113145098472B68002B03D12E60336005E01C00F5
S11314602368002BFBD12660336070BDE1130000BC
S1131470A03C0000D91300000368002B01D01A68B7
S1131480026018007047000043B2002B07DB1F23E3
S113149018401E3B83408022520001498B50704704
S11314A000E100E0014B58437047C04680BB000098
S11314B010B5084A536802210B435360064B984702
S11314C0064B98470220064CA047064B98473D2000
S11314D0A04710BD00400041E51600000D190000B2
S11314E0891600006D190000204A5378DB09FCD1ED
S11314F01E4A5378DB09FCD11C4B1B789B070AD589
S113150000221A4B1A701A005378DB09FCD1174ACF
S11315105378DB09FCD10122144B1A701A0053785A
S1131520DB09FCD1114A5378DB09FCD10F4B0022B3
S11315309A705A605A6120329A611A7802210A43D9
S11315401A701A005378DB09FCD1094B1022802150
S11315505A50BFF34F8FBFF36F8F0131FF315A5091
S11315601A60044B186000207047C0460018004001
S113157000E100E07C0200200F2802D00D20404250
S11315807047002905D1054B02229A601A61002098
S1131590F6E70222014BDA600020F1E70018004070
S11315A0F0B5CE46474680B583B0314B1A69D96849
S11315B00A400192019A1A612E4B1868431E984101
S11315C0C0B2C1222C492D4B9847019B002B49D016
S11315D001235B4299462A4B9846264F294D3AE00F
S11315E0013AD6B2B1420CD873185B10DAB2034098
S11315F0DB005B5DA34208D09C42F1DD0132D1B235
S1131600F0E74B46013305D001E00F2399464846E5
S11316103B689847019B0122A240934301930198A0
S1131620174B9847013844B2631C0AD0012C05D0EB
S11316300123002201260021FF20DDE70F23994624
S1131640E5E70B4B1A69D9680A400192019A1A61BD
S1131650019B002B06D00198C047013844B2631C9B
S1131660E4D1EEE703B00CBC90469946F0BDC04609
S1131670001800407C020020C83C0000D913000080
S1131680993B0000C03C0000C30709D5114B8022E0
S113169052009A60104A5A601A005378DB09FCD150
S11316A0830709D50B4B0222FF329A600B4A5A601A
S11316B01A005378DB09FCD1430709D5054B812275
S11316C052009A60064A5A601A005378DB09FCD12A
S11316D07047C046000C00400007010001040100EF
S11316E002060100064B1A7AD2B21A725A7AD2B2A0
S11316F05A729A7AD2B29A72DA7AD2B2DA7270479B
S11317000004004070B505000C00354BCB189B0A53
S1131710DBB2012B0BD0002851D0601E8441E0B213
S1131720304A3149314B98470D20404246E0002869
S11317304DD12C4A2C4900202C4B9847E369DB07F8
S113174018D40322E3691A42FCD123689B070BD502
S113175023680222934323600132E3691A42FCD1D5
S11317600222E3691A42FCD10D2323600322E369B8
S11317701A42FCD10122E3691A42FCD12C602000F8
S1131780431E9841C0B21A4A1749184B9847194B3F
S113179023600322E3691A42FCD180239B02636025
S11317A00722E3691A42FCD10B2323730022253359
S11317B0E2542F3B2B71104BEB80002070BD094A83
S11317C009490020094B98470D204042F6E70800DC
S11317D0431E9841C0B2034A0349044B9847ADE7FE
S11317E000F8FFBD25090000E03C0000D91300000B
S11317F0EF0800000C002300FF010000F0B5DE46F6
S113180057464E464546E0B583B081460E0004680F
S11318100B6898464D6803790193002815D0200081
S1131820431E9841C0B2364A3649374B9847E3695C
S11318305B073FD10323E0691840FCD123689B0771
S11318403BD5020001239C4609E00020EBE701356B
S113185001325BB2002B16DBB368834227D9237EA7
S1131860DBB2042119422BD0A76A002DF0D02F70CF
S113187001990129EBD93F0A6F700235E8E701218C
S11318808B46D84437E001235B426383813323765C
S1131890132040420322237E1342FCD003232376E9
S11318A003B03CBC90469946A246AB46F0BD934279
S11318B0D5D8EFE704204042F2E714204042EFE796
S11318C09042C6D867461F42C3D04F46FF88BA46E7
S11318D04746002F0FD03F78BA4601990129CED947
S11318E047467F783F02BB46574659460F43BA46A0
S11318F002218B46D84401305746A762A9E7C04667
S1131900850A0000E03C0000D9130000154B196A59
S11319101A6A15480140920F9207022002430A43B3
S11319201A629A69FE21C9030A4006210A439A6190
S11319301A7F19310A401A7719000422CB681A4217
S1131940FCD0084A936980210B439361110008225B
S1131950CB681A42FCD0034A136A80210B431362FA
S11319607047C046000800400000FF0F8222D201E9
S11319701A4B5A8002221A4B9A8419000E32CB68F1
S11319801A42FCD0174A164BDA62174B1B689B0E9F
S11319903F2B1AD09B02802292001343104A936279
S11319A006239384938C5B0712D51100D022CB6855
S11319B01340D02BFBD10A4A938C80210B43938490
S11319C0064A5378DB09FCD17047FC23DB01E5E7C9
S11319D003491022CB681A42FCD0ECE7000C00400B
S11319E000080040B905010424608000024B034A4A
S11319F05A6005221A60704710E000E0FFFFFF0004
S1131A0070B50B0E5E1EF6B2002B13D034000E4AD6
S1131A100E4D802040025560956013680342FCD04F
S1131A20013CE4B2FF2CF6D13306F61A084B9C466F
S1131A3061447118044B5960996019008022520264
S1131A400B681342FCD070BD10E000E0FFFFFF0004
S1131A50010000FFF8B507000C003C4BCD18AD0A9F
S1131A60EDB2002D51D09622520039490020394B55
S1131A70984701267642FC60792235490120354B8E
S1131A809847E37BDB09FCD123889B0704D500231B
S1131A902380E37BDB09FCD101232380E37BDB0987
S1131AA0FCD1B3009B199A002B4B9B185A882280B7
S1131AB018792072DB8863810C231340082B26D00D
S1131AC0002B2ED1B3009B199B00234AD3189B896A
S1131AD023830023638301236373204B9C4231D00F
S1131AE00D35EBB22A060ED41F221A40012393406F
S1131AF01B4A80215350BFF34F8FBFF36F8F0131C7
S1131B00FF31535013600020F8BD0026B3E7B30043
S1131B109E19B600104B9E19F368A3610023E3617C
S1131B20D9E7042BD7D10C48B3009A199200821834
S1131B30127B2276002262769B199B00C3181B7AC3
S1131B402375C8E7074B1F60CAE7C04600E8FFBD1E
S1131B50103D0000D9130000FC3C000000180042B6
S1131B6000E100E080020020C268138802210B43D8
S1131B7013807047C36818888007C00F704700201F
S1131B807047000010B5C068044B9C466044800A4E
S1131B900D30C0B2024B984710BDC04600E8FFBDEF
S1131BA08914000010B5064B1868C3689A7BD207E5
S1131BB000D410BD01229A7303689847F9E7C04620
S1131BC0800200200020704770B5837C0F221340F0
S1131BD0C17C083A0A40012A0BD05A0119498C46A3
S1131BE062441021D1715B01174A94466344197011
S1131BF070BD4A060ED5C27C40218A43C2745A0184
S1131C00124CA4466244802582246400155506249F
S1131C10FF341155C27C08218A43C2740C495A010D
S1131C208C180025A572A5761300064CA4466344BF
S1131C306F24DC71044B9C4662441470807C8B6E70
S1131C409847D5E700510041085100410050004138
S1131C508402002010B520228A40D2B2817C0F2356
S1131C600B405B0105498C4663441A708268807C92
S1131C70034B1B6F0121984710BDC046085100411A
S1131C808402002010B5837CFF2B02D0C27C520654
S1131C9000D410BDC27C4024A243C27482680248AE
S1131CA0046F1800A047F4E78402002030B583B025
S1131CB0837C01AC2525257025356570FF2B1BD051
S1131CC0C47C640618D50F242340002916D05C0177
S1131CD00E4DAC4664448025257101AC645C590109
S1131CE00A4DAC466144CC715B0109498C4663449E
S1131CF01C701100074B984703B030BD5C01034DC5
S1131D00AC46644440256571E7E7C0460051004194
S1131D1008510041851C000070B582B0837C0F22FD
S1131D20134001AA04241470043454705D01002982
S1131D3031D01A0008325201324C145D6406640F2B
S1131D400A015219304DAA18957AEDB2022C2AD004
S1131D50AC0741D5C57C947A0226B443947201AA97
S1131D60545C5A01294EB4466244D4715B01284A3A
S1131D70944663441C7007232B40012B3FD1C37C42
S1131D805B063CD5C37CDB09994238D0002219009C
S1131D90204B984733E01A0008325201194C145D65
S1131DA007221440CCE7EC07D2D5947A0125AC4342
S1131DB0947201AA545C5A01144DAC466244D47125
S1131DC05B01134A944663441C704B1E9941C9B28B
S1131DD00422104B984712E05A00521812010A4884
S1131DE082180020907201AA515C5A010748844667
S1131DF06244D1715B01064A94466344197002B08F
S1131E0070BDC046005000418402002000510041D2
S1131E1008510041AD1C0000F0B5C64600B50C4D9C
S1131E202C0074342935FF350A4B9846FF270026C9
S1131E3003212000C047A774E6741434AC42F7D1E0
S1131E40602200210248044B984704BC9046F0BD30
S1131E5084020020851C0000473C0000F0B5C64603
S1131E6000B504000E00837C0F251D40002900D11D
S1131E70AAE06A015A4B9B1858698004800C238A93
S1131E80584A934200D19AE0013B9AB2E37C072777
S1131E901F40002E05D06B0153498C466344022138
S1131EA0D971A368C118A160636899424AD25B1AC8
S1131EB09BB2E27C920635D5228A101C92B29A42D9
S1131EC000D9181C83B2984623689C466144424654
S1131ED0E068464B9847E1686A01414B9B181961D9
S1131EE06A013F4B9B185A6941468904890C920B3D
S1131EF092030A435A615A693D490A405A61002EC5
S1131F0007D1012F59D04A226B013A498C466344C8
S1131F101A706D01344B9C46654480236B7104BC7C
S1131F209046F0BD1A1C80208001834201D9324BB7
S1131F301A8893B29846236859186A01284B9B184B
S1131F401961CDE7E37CDB060FD5E37C10229343D4
S1131F50E3746A01224B9B185A69920B92035A61EB
S1131F605A6923490A405A61C9E7012F0ED06D010D
S1131F70224B9C4665444A232B70218A024091429D
S1131F800BD0002120001E4B9847C8E76D011B4B66
S1131F909C4665444B232B70EFE7E37C402293433C
S1131FA0E374A07C0E4BDB6EA16898470028B6D181
S1131FB0E37C40221343E374E3E74E22A4E7E77C87
S1131FC007231F40074A66E7038A064A0020934214
S1131FD000D059E7E37C07271F400020014A60E74F
S1131FE084020020FF03000000510041353C000042
S1131FF0FF3F00F009510041243D00000851004119
S1132000851C0000F8B5DE4657464E464546E0B509
S113201004008846837C0F251D40002957D06A019F
S11320207D4B9B185A681201920C92465F68BF045C
S1132030BF0CBB46068A794B9E4200D1CDE0013EDF
S1132040B6B25F463740E37C07221A4091464346C6
S1132050002B05D06B01724A944663440122DA7165
S1132060E37C9B060FD56368002B39D0A0681B1A4C
S11320709BB2226894466044E1681A00BB4200D9CE
S11320803A00684B98476368002B29D04246002ADF
S113209042D0228ABA423FD9E37C10229343E374AC
S11320A0A3685B44A3604B46012B00D187E06B011E
S11320B05D4A9446634425221A70002D02D1564B82
S11320C0E2681A6000212000584B984759E0068ABC
S11320D0524B9E4200D18EE000239B469A46AEE7C7
S11320E0E37CDB0600D47FE0E37C102293432022D0
S11320F01343E374484A6B01E1689950218AD31869
S11321005A68890409094A4802400A435A605A68CD
S1132110920B92035A6022E0A2685244A260934256
S1132120C1D99B1A9BB2E17C890630D5228A111C45
S113213092B29A4200D9191C8BB2E0686A013649FE
S113214050506A01344989184A689B041B0938486D
S1132150024013434B604B689B0B9B034B6043460D
S1132160002B08D125224B46012B2FD06B0131497E
S11321708C4663441A706D01294B9C466544402388
S11321802B713CBC90469946A246AB46F8BD218AC9
S11321908B420AD9802189018B420DD8B34321682F
S11321A08A1869011C480A50CBE78B42F7D2E17CBC
S11321B020200143E174F2E780239B01EFE76B01E8
S11321C0194A944663442D221A7076E76A01124B29
S11321D09B1800229A762D32C8E7BF05BF0DC37C39
S11321E007221A40914635E74346002B0CD1A368D9
S11321F05344A36057E7C37C07221A409146002743
S113220000239B469A462BE7238ABB4200D943E727
S1132210A3685344A36046E784020020FF03000040
S113222000510041353C000008510041851C00006C
S1132230FF3F00F00951004110B5314B9B78DB079B
S11322401FD42F4903228B781342FCD12C4B1B78CB
S11322509B070ED52A4A137802218B431370110071
S113226003228B781342FCD1254902228B78134236
S1132270FCD10122224B1A70190002328B781342CE
S1132280FCD11F4901228B781342FCD11D4B1E4AFD
S11322901A665A669A66DA661A671C4B98471C4B8C
S11322A01B685A0B1F210A40980C01409B015B0FCD
S11322B01F2A1FD01F291FD0072B1FD092010A43AA
S11322C01B0313430E4A1385D37803210B43D370A6
S11322D0D3780C210B43D370042313701100032211
S11322E08B781342FCD1064B064A5A6201221A81AA
S11322F0002010BD1A3ADDE70239DDE7023BDDE7D5
S11323000050004184020020C51B0000191E00007B
S113231024608000104B9B789B071AD10E4903223E
S11323208B781342FCD10C4B1B78DBB29A0708D490
S113233002221343084A1370110003228B781342BC
S1132340FCD18022054B1A60054A034B1A830020F6
S1132350704711204042FBE70050004100E100E0DB
S11323608D020000024A138901218B4313817047B7
S11323700050004180231843014B98727047C046B7
S113238000500041F0B50F24044043B29C46002C99
S113239054D02500002B07DB032319402700022C0F
S11323A050D91220404225E0A51CF5E76346002BD6
S11323B021DB7B00DB199B003B4C1B59002B66D1B6
S11323C07B00DF19BF00384BFF58384BAE0074193F
S11323D0A4001C198034276060337419A4001C19EC
S11323E0A2842734013121707519AD005B1926339D
S11323F018700020F0BD7B00DB199B002A4CE31809
S11324005B68002B06D17B00DF19BF00264BDF1968
S11324107F68DAE77B00DB199B00234CE3185B89B8
S11324209342F0DA13204042E4E714204042E1E70B
S113243014204042DEE713204042DBE70323194027
S113244000250027AB005B199E00184B9B198633AF
S11324501B78FF2BE9D10029A8D1002C04D06346B6
S1132460002B01DB0234E4B2A3001B199B000F4CC8
S1132470E41886342378FF2BDAD17B00DB199B0028
S1132480094C1B59002BD6D06346002BB3DB7B00D1
S1132490DB199B00044CE3181B89934200DB8FE794
S11324A013204042A6E7C046283D000084020020D5
S11324B0F8B505000F24044047B2002C10D02000CA
S11324C0002F02DB022C02D9F8BDA01CFAE706009B
S11324D00130830018188000254B6033181802E07F
S11324E0234874300026B3009B199A00204B9B1894
S11324F086331B78FF2BE7D0F90F03221D4B984737
S1132500B3009B199A001A4B9B188033DA7907237E
S11325101340012B1BD0002F1FDB6D01164B9C4673
S1132520654480225200AB5C07218B43AB54104BB3
S11325306033B1008A1992009A1827320020107073
S11325408E19B6009B192633FF221A70BCE7083592
S11325506D010022084BEA54E9E76401064B9C46EE
S1132560644480225200A35C70218B43A354DEE7B1
S113257084020020AD1C000000500041F0B5C646A6
S113258000B50F22024040B2002A00D192E01300AD
S113259000280BDB110008325201AA4C155DEDB284
S11325A0022900D88DE012204042E5E0931CF1E7B7
S11325B076322A4275D1A34A90464444112080229F
S11325C05200A0549A00D21895009F4A60325219C2
S11325D0928C95039D48054080208000824200D95A
S11325E0CDE00138FF38824200D913E1802A00D9B6
S11325F000E1402A00D915E1202A00D902E1102A7D
S113260000D917E1F838904280414042060735432B
S11326107D609504AD0CB9E070222A4244D18A4809
S11326209E00F218920082188032D2795207520E1C
S11326301543844A9446644480225200A554603071
S1132640F618B6008019808C8504AD0C0132FF3277
S11326500723904214D8013AFF3A013B90420FD825
S1132660013B80280CD8013B402809D8013B202895
S113267006D8013B102803D8F83A824292415342CB
S11326801B072B437B61802282235B00E2544901B8
S11326906D4B591800238B7600206DE012204042C8
S11326A06AE01420404267E01420404264E01420B1
S11326B0404261E080235B00624AD55CEDB20021B8
S11326C000239A00D21894005F4A121986321278B5
S11326D09446FF2AE2D04C015B4A17199E00F61873
S11326E0B60092198032D67907223240012A00D1ED
S11326F05EE7002890DB6A07D9D153489E00F218A0
S1132700920082188032D2795207520F15434D4AF3
S11327109446644480225200A5546030F618B600F2
S11327208019858CAB03494818400132FF320723D6
S1132730954214D8013AFF3A013B95420FD8013B28
S1132740802D0CD8013B402D09D8013B202D06D803
S1132750013B102D03D8F83AAA42924153421B0779
S113276003437B6040220623FF33E2544901364B86
S1132770591800238B72002004BC9046F0BDE02061
S1132780C00505437D609504AD0C07200007284370
S113279078610625FF354026665582277F00802014
S11327A0E05529484901411800248C728C760F3475
S11327B061460C409900C9188900411880310968A4
S11327C063011950C018416892041409204A0A4050
S11327D0224342604268920B92034260194A9A185B
S11327E0B021D15556551B4A9446634410221A70A1
S11327F00020C1E7A020C00505437D609504AD0C11
S11328000520C3E7C020800505437D609504AD0C19
S11328100320BBE7C020C00505437D609504AD0CD3
S11328200620B3E78020C00505437D609504AD0C08
S11328300420ABE78020800505437D609504AD0C42
S11328400220A3E7005000418402002000C0FF0FD3
S1132850FF3F00F009510041F0B50F23034040B29F
S1132860C40F002B09D01A00002804DB022B05D961
S11328701220404219E09A1CF8E70022012915D0E1
S1132880002936D093009B189B00474AD218863201
S113289012780F2313405B01444A944663449879A9
S11328A01023A3401840431E9841F0BD1025A540B5
S11328B0EDB23D49900083189B00CB1886331E78F7
S11328C00F2333405E01394FBC46664475712025A1
S11328D0A540ECB25B01364DAC4663441C708218D3
S11328E092008A188032D37908210B43D3710020D7
S11328F0DBE793009B1899002B4B5B1886331B78FE
S11329000F210B405D012B498C466544832149000E
S11329106E5CF639A14000200E42C6D0C9B2053023
S1132920FF3029542021A140C8B25B01224EB44695
S1132930634418700823FF33EB5C0B4209D008236F
S1132940FF33E854073BFF3BA340DBB2822149003D
S11329506B5493009B189900134B5B188033D979FF
S113296007230B40012B0BD093009A1892000E4BB7
S11329709B188033DA7908218A43DA71002094E7BE
S11329800633FF33E95CD63B0020194200D08CE7C4
S113299093009A189200044B9B188033DA7908212B
S11329A08A43DA7181E7C046840200200051004165
S11329B009510041005000410851004170B50D001B
S11329C00F2318404401164B1B1919685B689B04BC
S11329D09E0C02281AD8002D1BD0124B9C4664442E
S11329E080235B00E35C112B16D10823FF33E35CE7
S11329F00020DB0600D470BD082228000A4B98474B
S1132A0010220823FF33E2543000F4E7122040423E
S1132A10F1E712204042EEE713204042EBE7C046C4
S1132A208402002000500041353C0000F0B5DE4631
S1132A3057464E464546E0B585B08046067A0F2394
S1132A40334076B2002B00D1D3E01800002E39DBDE
S1132A500400734A6032411C8D006D18AD00551995
S1132A608100091889005218918C6E4A91422BD02A
S1132A704F1EBFB2424652681740022B00D9A4E051
S1132A8043461B686848834220D9981801906748D8
S1132A9084460198604519D89B0717D1002E32DB74
S1132AA0914200D9AFE0002F30D0A3001B199A0047
S1132AB05B4B9B1880331B68002B00D18BE00023F9
S1132AC099460FE0981CC3E70F00D3E7A3001B1936
S1132AD09A00534B9B1880331B68002B00D177E07E
S1132AE001239946A3001B199A004D4B9B18803370
S1132AF0DB7902201B070CD505B03CBC90469946F7
S1132B00A246AB46F0BD00239946EBE70023994665
S1132B10E8E703A8464B9847A3001B199A00404BCB
S1132B209B188033DB795B0644D4A3001B199B00FC
S1132B303B4A93469B4480235B449A46DB7940227C
S1132B4013435246D37103A83A4B98475B46424617
S1132B5012685A67424652689A6700235A46D367F6
S1132B60F20FD2015346D9797F230B4049464901DC
S1132B701343202293430B435246D37143465B7A5B
S1132B800022002B02D07A427A41D2B2A3001C194F
S1132B90A400234B1B1980331201DF7910218F43CA
S1132BA01743DF71002E0ADB00212800224B9847CF
S1132BB00020A1E703A81F4B984701209CE70021B0
S1132BC028001E4B9847002096E71220404293E7C6
S1132BD01320404290E7122040428DE713204042E8
S1132BE08AE743465A689705BF0D0D4D7435002496
S1132BF046E70B4A6032918C0A4A9142F1D0084D63
S1132C007435002434E7A3001B199A00044B9B1865
S1132C1080331B68002BE1D00123994662E7C0464C
S1132C2084020020FF030000FFFFFF1FFF0F0020AE
S1132C304D0900005B090000052000005D1E000036
S1132C400B1E06D0012806D0002801D1034A1366C2
S1132C507047034BF6E7014A5366F9E78402002004
S1132C60C51B00000B1E08D0002808D0012809D07D
S1132C70022806D1054A136703E0054BF4E7034A2B
S1132C8093667047014AD366FBE7C046840200207E
S1132C90C51B0000F8B5824B1E8CB6B2002E03D0C3
S1132CA0804C74340025B9E0998B1B8B0B405A0778
S1132CB017D49A051CD41A063ED470221A4244D161
S1132CC01A075ED4DB07EBD5754B774A9A839A8251
S1132CD0923AFF3A1A83734B5B6E002104209847A3
S1132CE005E004226E4B9A836E4B1B6E9847F8BD29
S1132CF06B4B6D4A9A839A82923AFF3A1A83694BD4
S1132D001B891B071B0F032B0CD0664B1B8D1B074A
S1132D101B0F00216F3A032B05D0624B5B6E03201F
S1132D209847E4E7002252015E4B9B181989490435
S1132D30490D00221A81F0E78022594B9A83594B9E
S1132D405B6E002105209847D1E7554B9A839A8200
S1132D50554A1A83554B9B8C9B060CD45349323AE3
S1132D60FF3ACB681340D02BFBD14E4B5B6E002156
S1132D7002209847BBE74D491022CB681A42FCD089
S1132D80F3E7474B0021802252009954F83A9A8382
S1132D9068329A82444A1A83454B9847414B5B6E8A
S1132DA0002101209847A2E7CB0607D44B0608D49C
S1132DB08B062ED500213F4B98472AE03E4B98477F
S1132DC027E001213B4B984723E04B060ED40B0729
S1132DD010D48B0712D407231A40012A19D14B07A8
S1132DE010D4CB0615D5344B984712E00121314B52
S1132DF098470EE00121314B98470AE00121304BFE
S1132E00984706E000212D4B984702E00021294B0A
S1132E10984701351434092D00D168E72000A17CBE
S1132E20FF29F6D00F230B40012199400E42F0D028
S1132E305901244FBC466144C9795B01224FBC4609
S1132E4063441B781940E4D0AB005A199200154B27
S1132E509C4662447032D27D47231340012BA3D099
S1132E6053B2002BB1DB8B06D0D44B070CD4CB0769
S1132E700ED407231A40012ACBD10B070CD4CB065E
S1132E80C7D50D4B9847C4E700210C4B9847C0E7C2
S1132E9001210E4B9847BCE70121084B9847B8E73E
S1132EA0005000418402002001020000000800409C
S1132EB0191E0000551C0000C91B0000191D00004C
S1132EC05D1E000000510041095100410520000031
S1132ED030B502231F240120C021C90522001A4055
S1132EE0050095404D6101330A2BF7D130BD30B553
S1132EF002231F240120C021C90522001A40050015
S1132F0095408D6101330A2BF7D130BD431C1F203E
S1132F10184001238340C022D205D36170470000CA
S1132F2070B506000C00044DA847A0B2034B9847A7
S1132F303000A84770BDC0460D2F00007D09000079
S1132F40F0B5D646474680B583B080460191002847
S1132F500FDD0024094B9A46094E0A4FD0476B46B1
S1132F609D882800B047B8472800B0470134A045E1
S1132F70F4D103B00CBC90469A46F0BDEF2E00008D
S1132F807D090000D12E0000F8B50500064B9847D6
S1132F900124064FADB2064E2000B8472800B047C2
S1132FA00134092CF8D1F8BDD12E00000D2F0000FA
S1132FB07D090000F0B583B00190084B98470124C7
S1132FC0074D6B469F88074E01992000A84738009B
S1132FD0B0470134092CF7D103B0F0BDD12E000065
S1132FE0212F00007D09000070B50624012809D0B6
S1132FF0074E084D1420B047C820A847013C002CB8
S1133000F8D170BDFA2149000530034B9847F8E721
S1133010B52F00007D090000412F000010B5064BBC
S11330209847064B98476420054B9847054B9847AB
S1133030054B9847002010BD910400005104000086
S1133040892F0000B9020000E92F0000F0B583B019
S113305006000C0015000A7853069B0F012B00D0C4
S11330606CE0097963791B020B433B490978994267
S113307003D039494978994263D152B2002A0EDB10
S1133080A779E3791B021F43344B98476378202BBD
S113309018D0222B3CD00D20404203B0F0BD012DAE
S11330A052D06378212B51D1A279E3791B021343C7
S11330B0072B4ED100230722274908313000284C22
S11330C0A047EAE7072F34D1002D1AD007220100C8
S11330D06846244B9847204B1B69002B05D0684653
S11330E0984703000020002BD7D01B4A13000099F7
S11330F091606A4692889A816A4692799A7300200E
S1133100CBE70023072201003000154CA047C4E799
S11331100023002200210020114DA8470E4B5B69BB
S1133120002B09D0A278E0780002104398470020D1
S1133130B3E701204042B0E70020AEE70A20404256
S1133140ABE70A204042A8E70020A6E70D20404252
S1133150A3E701204042A0E76C0400201D3A0000D0
S1133160CD340000353C0000F0B5DE4657464E46EF
S11331704546E0B583B01600012968D000290BD07C
S1133180022900D193E00D20404203B03CBC90469C
S11331909946A246AB46F0BD83689846106800285D
S11331A000D187E00193012343449B46474F484B9A
S11331B099468278437908218B43022B02D00A2056
S11331C04042E2E701998A460B789A4275D0FF2B78
S11331D076D10A70052271683E4B9847041E1ED1B1
S11331E030680378C018042271683A4B9847019BF1
S11331F05B4527D0019B013301930028D9D10A20D4
S11332004042C2E753469D702800314B98473460D2
S1133210207820187168304B9847041EE0D0A578B8
S113322063791B022279D21892B2E1782800B84758
S1133230002848D16BB2002BE4DB43461D71280003
S1133240C847E4E70122254B5A7100209DE78468B2
S1133250002A08D013685B7908229343022B02D01A
S11332600A20404291E72378FF2B08D0FF232370E4
S1133270A078FF2803D01A4B9847FF23A3706378E4
S1133280FF2B08D0FF236370E078FF2803D0144B92
S11332909847FF23E3702079FF2803D0104B984709
S11332A0FF23237100220D4B5A7100206DE71B2070
S11332B040426AE70A20404267E71220404264E73E
S11332C01C20404261E7142040425EE719110000CF
S11332D0AD110000393A00006F3A00006C04002080
S11332E08111000010B50A4B984701280CD80948F1
S11332F0094BC36100621830084B98470849012004
S1133300084B9847002010BD11204042FBE7C046FF
S1133310293A00006C04002069310000C139000022
S1133320040000202939000010B5064B1C69002C4C
S113333007D0002201212000636898472468002CEC
S1133340F7D110BD9004002070B506000D00074BA6
S1133350DC68002C03D170BD2468002CFBD06368AA
S1133360002BF9D0290030009847F5E7900400209D
S1133370F8B507000E0015000D4B9C68002C04D115
S1133380002011E02468002C0DD06368002BF9D0D4
S11333902A00310038009847002806D00A30F1D0BE
S11333A00120404200E00020F8BD0120FCE7C046B7
S11333B09004002010B5064B5C68002C03D110BDAE
S11333C02468002CFBD06368002BF9D09847F7E7FA
S11333D09004002010B51400002903D0012929D03D
S11333E0002010BD1378002BFAD15378052B11D08F
S11333F0092BF5D19278124BDA76A378E178090299
S113340019434B1E994103310D4B997601200D4B05
S11334109847E5E790780C4B9847A378E178090240
S113342019434B1E99410231054B99760120054BF6
S11334309847D5E7012221000020044B9847CFE7A5
S113344090040020493300000D1100007133000086
S113345010B50D4B98470D4C0223A3760023E37659
S1133460637700200A4B9847207F0A4B98470A4A03
S113347000210020094CA047094A02210020A0474E
S11334800020084B984710BD293300009004002009
S1133490811100006D110000E9340000891300005F
S11334A0D5330000AD11000010B5002802D001286A
S11334B004D010BD0020034B9847FAE7024B98470D
S11334C0F7E7C046493300005134000010B584B01A
S11334D001AC01910292207263722000014B984763
S11334E004B010BDF9110000F0B5C64600B584B0B3
S11334F005000C000022B54B9847431C0DD0012356
S113350001280BD022781F23110099430BD0CBB292
S1133510802B00D1F8E0002300E00023180004B061
S113352004BC9046F0BD63780B2B00D9E4E19B000A
S1133530A749CB589F460123002200212800A54C0F
S1133540A04743424341DBB2E8E7A278002A1AD0FD
S1133550A14B1B6859681868A04B9847002800D1F4
S1133560D4E1C3781B028178C91889B24118039148
S113357004229B4B98470290002806D0FF24964FC4
S1133580974B98461AE0974B984701230022002155
S11335902800904CA04743424341DBB2BEE73400CD
S11335A000E0340002980378C0180290039B019352
S11335B004221900C04702900028E6D08678A6426B
S11335C0F0D03C69002CEAD002AA002120006368F4
S11335D098470028E5D02468002CF5D13400E1E7B1
S11335E01F231A400023022A98D1A379E2791202F8
S11335F01A430023002A00D090E7207900217A4B57
S113360098470123002200212800724CA04701237F
S113361084E71F231A400023022A00D07EE7A379FF
S1133620E27912021A430023002A00D076E72079B7
S113363001216D4B98470123002200212800654C8D
S1133640A04701236AE7A378E5782D021D43237977
S1133650647924021C43604A1368D27E596818684E
S11336605E4B9847002847D00290C3781B028178AC
S1133670C91889B2411803910422594B984700286C
S11336803CD0574E08E002980378C01802900422F8
S11336900399B047002833D08378A342F3D1C37889
S11336A0AB42F0D102904C4B1E69002E2AD002AAE4
S11336B00121300073689847002804D03668002E32
S11336C0F5D100232AE7736802AA00213000984745
S11336D00023002800D021E7002D05D03E49012217
S11336E0A2404B7F13434B7700230022002100208C
S11336F0384CA047012311E700230FE700230DE70F
S113370000230BE7002309E76378062B33D0D9B2F3
S1133710062922D9082B00D1AFE00A2B00D0EDE016
S11337202D4B5A7F217963791B020B431A41D3072E
S113373000D4CAE0284B1D690023002D00D1EDE61A
S11337402200022128006B689847002800DBC8E0AB
S11337502D68002DF4D10023E0E6002B00D0CDE04D
S11337601F231A40D3B2012B00D892E0022A00D1C1
S11337709FE00023D2E6A378E27812021A43130AE8
S1133780022B33D0032B56D0012B01D00023C5E6E6
S1133790A279E3791B0213431A1C122B00D91222BB
S11337A094B20D4B1B685968186801220C4B98475A
S11337B0002800D1A4E00023220001002800054CC9
S11337C0A04743424341DBB2A8E6C0467133000040
S11337D04C3D0000CD34000090040020B53A0000B8
S11337E0393A00002933000021130000A379E67957
S11337F036021E43464B1F7F1B680132D2B2596802
S11338001868444B9847011E7CD0C3781B02847807
S1133810E418A4B20023A64205D9013F3E407342F6
S11338207341DBB22600320028003B4CA0474342E0
S11338304341DBB272E6A379E179090219430C0032
S1133840334B1E7F1B68D2B259681868334B9847B4
S1133850011E59D002780023944206D9731E2340D6
S1133860180043424341DBB21400220028002A4CD2
S1133870A04743424341DBB250E6254BDA7E596907
S11338800A705969002301222800234CA047012310
S113389044E6002302931E4C022202A96069204BD5
S11338A0984761690023022228001B4CA04701238A
S11338B034E6207902211B4B9847002803DB0123BF
S11338C018400290E7E7002328E6114B00225969CB
S11338D00A7059690023013200200F4CA0470123CC
S11338E01CE60B4B5A691070596900230122002011
S11338F0094CA047012311E600230FE600230DE63F
S113390000230BE6002309E6002307E6002305E66F
S113391090040020B53A0000CD3400001D3B0000A7
S1133920353C00002113000010B5012809D00028FF
S113393002D002280AD010BD07480430074B98472C
S1133940F9E705480830054B9847F4E702480C307E
S1133950024B9847EFE7C04690040020391400005A
S113396070B50400431E9841C0B20C4A0C490D4B7B
S113397098470D4B984700280EDB0C4D2022002160
S113398028000B4B98476C610A4900200A4CA04759
S11339900A490120A047002070BDC046550300001D
S11339A07C3D0000D9130000851000009004002025
S11339B0473C0000B5330000E9100000A9340000C2
S11339C010B5010002481030024B984710BDC046A4
S11339D0900400203914000010B50B4B9B7E002B83
S11339E00CD100280DD0084B18600268D2791A77E0
S11339F001229A76054B9847002010BD04204042CE
S1133A00FBE709204042F8E790040020F51000008D
S1133A1010B5014B984710BD01110000014B5869C6
S1133A207047C04690040020024B987EC30600D520
S1133A30102070479004002010B5884211D20378FA
S1133A40012B10D9447894420AD0C018814206D977
S1133A500378012B09D944789442F6D100E0002080
S1133A6010BD0020FCE70020FAE70020F8E78842B8
S1133A7015D20378012B14D94278042A13D0052ACD
S1133A800CD0C018814208D90378012B0DD9427893
S1133A90042A0CD0052AF4D100E00020704700204D
S1133AA0FCE70020FAE70020F8E70020F6E7002012
S1133AB0F4E7000070B50C0015000222164B98477D
S1133AC000281DD084421CD90378012B1BD94378CC
S1133AD0022B1AD14379AB4212D0C27812028378F6
S1133AE09B189BB2C018844209D90378012B0ED9C4
S1133AF04378022B0DD14379AB42EED100E0002094
S1133B0070BD0020FCE70020FAE70020F8E7002061
S1133B10F6E70020F4E7C046393A0000F8B50D0096
S1133B201700884212D200240A4E03222900B0470B
S1133B3000280ED00378012B0AD9A74209D00134FA
S1133B40E4B2C0188542F0D8002002E0002000E072
S1133B500020F8BD393A000010B506484030064B45
S1133B609847064B98470648064B9847064B984794
S1133B7010BDC046B004002061390000E5320000E9
S1133B800C000020D9390000113A000010B5014B97
S1133B90984710BD593B000010B50023002802D0FF
S1133BA000F004F8431C180010BDC0464142084010
S1133BB01C2101231B04984201D3000C10391B0A59
S1133BC0984201D3000A08391B09984201D300091D
S1133BD0043902A2105C401A7047C0461B1C1D1D0C
S1133BE01E1E1E1E1F1F1F1F1F1F1F1F70B5002616
S1133BF00C4D0D4C641BA410A64209D1002600F004
S1133C00C9F80A4D0A4C641BA410A64205D170BD24
S1133C10B300EB5898470136EEE7B300EB589847EA
S1133C200136F2E7A03D0000A03D0000A03D0000E9
S1133C30A43D0000002310B59A4200D110BDCC5C15
S1133C40C4540133F8E703008218934200D170474B
S1133C5019700133F9E700002E2E2F68616C2F7361
S1133C6072632F68616C5F696F2E63002E2E2F685C
S1133C70616C2F7372632F68616C5F7370695F6D21
S1133C805F73796E632E63002E2E2F68616C2F7321
S1133C9072632F68616C5F74696D65722E630000D6
S1133CA02E2E2F68616C2F7574696C732F73726379
S1133CB02F7574696C735F6C6973742E63000000F4
S1133CC0010000000F0000002E2E2F68706C2F657D
S1133CD069632F68706C5F6569632E630000000080
S1133CE02E2E2F68706C2F736572636F6D2F687042
S1133CF06C5F736572636F6D2E630000010068036F
S1133D000000000000000000701700000000000028
S1133D102E2E2F68706C2F74632F68706C5F746321
S1133D202E630000002000002C040020000000008E
S1133D3040000000EC0300200000000040000000F0
S1133D40AC0300200000000040000000F838000030
S1133D50E0350000F838000012360000F8380000A2
S1133D6036350000F8380000F8380000F838000054
S1133D704A350000F8380000463600002E2E2F7514
S1133D8073622F6465766963652F75736264632E4D
S1133D9063000000F8B5C046F8BC08BC9E467047F6
S1133DA0B5000000F8B5C046F8BC08BC9E46704794
S1073DB08D0000007E
S1133DB434000000000000004D3000001400002016
S1133DC4690000201201000202000040EB030424F5
S1133DD400010000000109024300020100803209CD
S1133DE4040000010202000005240001100524015E
S1133DF4010004240202052406000107058203408D
S1133E04000A09040100020A000000070501024037
S10F3E14000007058102400000000000CF
S9030000FC
