:1000000098040020FD000000F9000000F900000045
:1000100000000000000000000000000000000000E0
:10002000000000000000000000000000F9000000D7
:100030000000000000000000F9000000F9000000CE
:10004000F9000000F9000000F9000000F9000000CC
:10005000F9000000F9000000F9000000F9000000BC
:10006000F9000000F9000000F9000000F9000000AC
:10007000F9000000F9000000F9000000F90000009C
:10008000F9000000F9000000F900000010B5064C6E
:100090002378002B07D1054B002B02D0044800E049
:1000A00000BF0123237010BD640000200000000089
:1000B000D00C0000084B10B5002B03D007490848AE
:1000C00000E000BF07480368002B00D110BD064BBD
:1000D000002BFBD09847F9E70000000068000020E3
:1000E000D00C0000D00C00000000000010B5014B47
:1000F000984710BDF5010000FEE70000F8B52A4A58
:100100002A4B9A4211D01A00294B9A420DD2294A01
:1001100003339B1A9B0801339B000022234822498A
:100120008C58845004329A42FAD1234A234B9A4283
:100130000AD2D34321495B1803218B4304339B1814
:10014000002102C29342FCD11D4AFF211D4B8B436B
:100150009360FD3990235B001B4AD1501B4AD37832
:100160000325AB4302242343D370D3780C27BB432E
:1001700008263343D370164B987B302290432022BD
:1001800010439873997BB943314399739A7BAA437F
:1001900022439A730F4A536880210B4353600E4BDE
:1001A00098470E4B9847FEE7D00C00000000002057
:1001B000640000200400002064000020940000205F
:1001C00000ED00E000000000007000410050004120
:1001D00000480041004000411D0A0000FD070000EA
:1001E00010B50248024B984710BDC04610E000E031
:1001F0005103000070B5474B9847C022D205042434
:1002000054619460444B45499962C020000698624D
:1002100042269D5D01218D439D55082555619560C0
:100220003F4D9D62986201369D5D8D439D55102521
:10023000556195603B4D9D62986201369D5D8D4391
:100240009D55202555619560374D9D629862013618
:100250009D5D8D439D55402555619560334D9D6253
:10026000986201369D5D8D439D5580255561956051
:100270002F4D9D62986201369D5D8D439D55802571
:100280006D00556195602B4D9D62986201369D5DB4
:100290008D439D558025AD0055619560264D9D622D
:1002A000986201369D5D8D439D558025ED019561D8
:1002B0009560224D9D6298624E25585D8843585541
:1002C0008020000250601E4898621E4898624F20AD
:1002D0001D5CA5431D541D5C8D431D5480200004EE
:1002E00090608025ED059D62174D9D6290615720BD
:1002F0001A5CA2431A541A5C8A430A431A543A31CC
:100300005A5C48380240113002435A540F4B984708
:1003100070BDC046B103000000440041040000402D
:100320000800004010000040200000404000004055
:1003300080000040000100400002004000400040FA
:1003400000800240000002C0800000C0E101000007
:1003500010B5024B1860024B984710BD800000207A
:100360007504000010B5044B1C68044B984701004D
:100370002000034B984710BD80000020A903000017
:10038000890400000300064A1268002A04D0044AC7
:100390001068C318136070470249014A1160F6E7FC
:1003A0008400002098040020FA235B015843704722
:1003B00010B5064B5A685A60054B9847054B98474D
:1003C000054B98473F20054B984710BD0040004122
:1003D000010400002104000065040000E1030000A6
:1003E000C3070AD5054B802252009A60832252022D
:1003F0005A601A005378DB09FCD17047000C0040AA
:10040000064B1A7AD2B21A725A7AD2B25A729A7ABF
:10041000D2B29A72DA7AD2B2DA727047000400402D
:100420000E4B196A1A6A0E480140920F9207022079
:1004300002430A431A629A6902439A611A7F1F2192
:100440000A401A7719000822CB681A42FCD0034AE6
:10045000136A80210B4313627047C04600080040B6
:100460000000FF0F024A936902218B43936170479A
:1004700000080040024B034A5A6005221A60704788
:1004800010E000E0FFFFFF0070B50B0E5E1EF6B23D
:10049000002B13D034000E4A0E4D802040025560D0
:1004A000956013680342FCD0013CE4B2FF2CF6D106
:1004B0003306F61A084B9C4661447118044B596088
:1004C00099601900802252020B681342FCD070BD63
:1004D00010E000E0FFFFFF00010000FF30B5022345
:1004E0001F240120C021C90522001A4005009540A3
:1004F0004D6101330A2BF7D130BD30B502231F24E3
:100500000120C021C90522001A40050095408D61D7
:1005100001330A2BF7D130BD431C1F2018400123A3
:100520008340C022D205D3617047000070B5060039
:100530000C00044DA847A0B2034B98473000A847D1
:1005400070BDC0461905000065030000F0B5D64631
:10055000474680B583B08046019100280FDD002416
:10056000094B9A46094E0A4FD0476B469D88280092
:10057000B047B8472800B0470134A045F4D103B0D4
:100580000CBC90469A46F0BDFB04000065030000D9
:10059000DD040000F8B50124054F85B2054E2000AA
:1005A000B8472800B0470134092CF8D1F8BDC0463F
:1005B0001905000065030000F8B50824054F85B251
:1005C000054E2000B8472800B047013C002CF8D168
:1005D000F8BDC0461905000065030000F0B583B002
:1005E0000190084B98470124074D6B469F88074EA2
:1005F00001992000A8473800B0470134092CF7D1F1
:1006000003B0F0BDDD0400002D050000650300000F
:10061000F0B583B00190084B98470824074D6B460E
:100620009F88074E01992000A8473800B047013C39
:10063000002CF7D103B0F0BDDD0400002D05000053
:1006400065030000F0B583B001900124074D092631
:10065000074F2000A847301BA8476B469888B8472B
:100660000134052CF5D103B0F0BDC04619050000DA
:1006700065030000F0B583B001900424074D0926FE
:10068000074F2000A847301BA8476B469888B847FB
:10069000013C002CF5D103B0F0BDC04619050000A7
:1006A00065030000F0B5DE4657464E46C0B584B03F
:1006B00007000191151E00DC86E0CB0F8C466344D9
:1006C0005B1002938B00994601248600414B9C46A7
:1006D000664413E0404B98470198404B9B4698472F
:1006E0006B469B88039318003D4A924690470198B9
:1006F000D8470398D0470134A54265DB092FFAD8C3
:1007000033689F46344B98470198364B9B46984731
:100710006B469B8803931800314A92469047019894
:10072000D8470398D047E6E72B4B984701982B4BC7
:1007300098476B469B8803931800294A9246904736
:100740000198284B98470398D047D4E7224B984705
:100750000198244B98476B469B8803931800204AC6
:100760009246904701981D4B98470398D047C2E79F
:10077000494601201C4B9847BDE7019902201A4BBE
:100780009847B8E7144B98470198184B9847019839
:10079000174B98476B469888114B9847ABE70E4B21
:1007A00098470198134B98470198134B98476B460D
:1007B00098880B4B98479EE702980E4B98479AE70C
:1007C00002980D4B984796E704B01CBC91469A4698
:1007D000A346F0BD280C0000DD04000095050000D4
:1007E00065030000B90500004D0500004506000046
:1007F00075060000DD05000011060000F8B50C4B81
:100800009847002400230B4E0B4D0C4F05E0B847D2
:1008100009210B4B984723000C00A342F7D0042278
:1008200032212000B047C8204000A8472100F2E74D
:10083000ED000000A506000065030000650A000049
:10084000110A000003460B437FD4002243088B4269
:1008500074D303098B425FD3030A8B4244D3030B47
:100860008B4228D3030C8B420DD3FF22090212BA0C
:10087000030C8B4202D31212090265D0030B8B4288
:1008800019D300E0090AC30B8B4201D3CB03C01A72
:100890005241830B8B4201D38B03C01A5241430B4D
:1008A0008B4201D34B03C01A5241030B8B4201D33D
:1008B0000B03C01A5241C30A8B4201D3CB02C01AA8
:1008C0005241830A8B4201D38B02C01A5241430A20
:1008D0008B4201D34B02C01A5241030A8B4201D30F
:1008E0000B02C01A5241CDD2C3098B4201D3CB01B6
:1008F000C01A524183098B4201D38B01C01A524165
:1009000043098B4201D34B01C01A524103098B4268
:1009100001D30B01C01A5241C3088B4201D3CB0053
:10092000C01A524183088B4201D38B00C01A524136
:1009300043088B4201D34B00C01A5241411A00D2E6
:1009400001465241104670475DE0CA0F00D049424F
:10095000031000D34042534000229C4603098B42BF
:100960002DD3030A8B4212D3FC22890112BA030A47
:100970008B420CD3890192118B4208D389019211C9
:100980008B4204D389013AD0921100E08909C3094E
:100990008B4201D3CB01C01A524183098B4201D350
:1009A0008B01C01A524143098B4201D34B01C01A3B
:1009B000524103098B4201D30B01C01A5241C308B3
:1009C0008B4201D3CB00C01A524183088B4201D322
:1009D0008B00C01A5241D9D243088B4201D34B003D
:1009E000C01A5241411A00D20146634652415B107F
:1009F000104601D34042002B00D549427047634660
:100A00005B1000D3404201B5002000F005F802BDA4
:100A10000029F8D016E770477047C04670B5002629
:100A20000C4D0D4C641BA410A64209D1002600F009
:100A30003FF90A4D0A4C641BA410A64205D170BDB3
:100A4000B300EB5898470136EEE7B300EB589847F0
:100A50000136F2E7BC0C0000BC0C0000BC0C00002E
:100A6000C00C0000154B10B51C68A36B002B15D1F2
:100A7000182000F033F8124BA0630380114B0122C1
:100A80004380114B8380114BC380114B038105239D
:100A9000438106338381002302614361A46B0D4AC5
:100AA000206961690C4B00F095F801220023801841
:100AB0005941206161614800400810BD00000020DC
:100AC0000E330000CDABFFFF341200006DE6FFFFD8
:100AD000ECDEFFFF2D7F954C2DF4515810B5034BE4
:100AE0000100186800F004F810BDC04600000020A6
:100AF000032370B5CD1C9D43083506000C2D1ED276
:100B00000C25A9421DD8300000F062F8254A14686F
:100B10002100002919D1244C2368002B03D1300077
:100B200000F044F820602900300000F03FF8431C3A
:100B30002CD10C233000336000F04BF803E0002D83
:100B4000DFDA0C233360002070BD0B685B1B1AD406
:100B50000B2B03D90B60CC18256003E08C420ED11F
:100B600063681360300000F034F8200007220B3077
:100B7000231D9043C31AE7D05A42E250E4E74B6882
:100B800063600C00EEE70C004968C2E70323C41C55
:100B90009C43A042E0D0211A300000F007F8431C2B
:100BA000DAD1C6E7880000208C000020002370B551
:100BB000064C050008002360FFF7E4FB431C03D14B
:100BC0002368002B00D02B6070BDC0469000002031
:100BD00070477047F0B5CE46474615042D0C2E00E1
:100BE00080B50704140C3F0C9946030C7E435D430B
:100BF000674363437F19340CE4199C46A54203D92B
:100C000080235B029846C4444B4651434343360419
:100C1000360C250C24046544A419591849192000E0
:100C20000CBC90469946F0BDD406000004070000B5
:100C3000280700004C070000700700007A0700003A
:100C4000840700009E070000B8070000C0070000EE
:100C50000000000000000000000000000000000094
:100C60000000000000000000000000000000000084
:100C70000000000000000000000000000000000074
:100C80000000000000000000000000000000000064
:100C90000000000000000000000000000000000054
:100CA0000000000000000000000000000000000044
:100CB000F8B5C046F8BC08BC9E467047B5000000B9
:100CC000F8B5C046F8BC08BC9E4670478D000000D1
:100CD0000400002000000000700C0000900C0000D8
:100CE000500C0000000000000000000000000000A8
:100CF00000000000000000000000000000000000F4
:100D000000000000000000000000000000000000E3
:100D100000000000000000000000000000000000D3
:100D200000000000000000000000000000000000C3
:040D300000000000BF
:00000001FF
